{
  "_format": "hh-sol-artifact-1",
  "contractName": "Staking",
  "sourceName": "contracts/Staking.sol",
  "abi": [
    {
      "inputs": [
        {
          "internalType": "address",
          "name": "_royaltiesReceiver",
          "type": "address"
        },
        {
          "internalType": "uint8",
          "name": "_royaltiesPercentage",
          "type": "uint8"
        },
        {
          "internalType": "contract IERC20",
          "name": "_token",
          "type": "address"
        }
      ],
      "stateMutability": "nonpayable",
      "type": "constructor"
    },
    {
      "anonymous": false,
      "inputs": [
        {
          "indexed": true,
          "internalType": "bytes32",
          "name": "_gameId",
          "type": "bytes32"
        },
        {
          "indexed": true,
          "internalType": "uint256",
          "name": "_betAmount",
          "type": "uint256"
        },
        {
          "components": [
            {
              "internalType": "address payable",
              "name": "addr",
              "type": "address"
            },
            {
              "internalType": "uint8",
              "name": "status",
              "type": "uint8"
            }
          ],
          "indexed": false,
          "internalType": "struct Staking.Bet",
          "name": "_creator",
          "type": "tuple"
        },
        {
          "components": [
            {
              "internalType": "address payable",
              "name": "addr",
              "type": "address"
            },
            {
              "internalType": "uint8",
              "name": "status",
              "type": "uint8"
            }
          ],
          "indexed": false,
          "internalType": "struct Staking.Bet",
          "name": "_taker",
          "type": "tuple"
        },
        {
          "indexed": false,
          "internalType": "uint8",
          "name": "_status",
          "type": "uint8"
        },
        {
          "indexed": false,
          "internalType": "uint256",
          "name": "_createdAt",
          "type": "uint256"
        },
        {
          "indexed": true,
          "internalType": "string",
          "name": "_eventType",
          "type": "string"
        },
        {
          "indexed": false,
          "internalType": "string",
          "name": "_moves",
          "type": "string"
        }
      ],
      "name": "gameEvent",
      "type": "event"
    },
    {
      "inputs": [
        {
          "internalType": "bytes32",
          "name": "_gameId",
          "type": "bytes32"
        }
      ],
      "name": "cancel",
      "outputs": [],
      "stateMutability": "nonpayable",
      "type": "function"
    },
    {
      "inputs": [
        {
          "internalType": "bytes32",
          "name": "_gameId",
          "type": "bytes32"
        },
        {
          "internalType": "uint256",
          "name": "_amount",
          "type": "uint256"
        }
      ],
      "name": "createBet",
      "outputs": [],
      "stateMutability": "payable",
      "type": "function"
    },
    {
      "inputs": [],
      "name": "finalize",
      "outputs": [],
      "stateMutability": "nonpayable",
      "type": "function"
    },
    {
      "inputs": [],
      "name": "gameCounter",
      "outputs": [
        {
          "internalType": "uint256",
          "name": "",
          "type": "uint256"
        }
      ],
      "stateMutability": "view",
      "type": "function"
    },
    {
      "inputs": [
        {
          "internalType": "uint8",
          "name": "_status",
          "type": "uint8"
        }
      ],
      "name": "getGames",
      "outputs": [
        {
          "components": [
            {
              "internalType": "bytes32",
              "name": "gameId",
              "type": "bytes32"
            },
            {
              "internalType": "uint256",
              "name": "betAmount",
              "type": "uint256"
            },
            {
              "components": [
                {
                  "internalType": "address payable",
                  "name": "addr",
                  "type": "address"
                },
                {
                  "internalType": "uint8",
                  "name": "status",
                  "type": "uint8"
                }
              ],
              "internalType": "struct Staking.Bet",
              "name": "creator",
              "type": "tuple"
            },
            {
              "components": [
                {
                  "internalType": "address payable",
                  "name": "addr",
                  "type": "address"
                },
                {
                  "internalType": "uint8",
                  "name": "status",
                  "type": "uint8"
                }
              ],
              "internalType": "struct Staking.Bet",
              "name": "taker",
              "type": "tuple"
            },
            {
              "internalType": "uint8",
              "name": "status",
              "type": "uint8"
            },
            {
              "internalType": "uint256",
              "name": "createdAt",
              "type": "uint256"
            }
          ],
          "internalType": "struct Staking.Game[]",
          "name": "",
          "type": "tuple[]"
        }
      ],
      "stateMutability": "view",
      "type": "function"
    },
    {
      "inputs": [
        {
          "internalType": "address",
          "name": "_user",
          "type": "address"
        }
      ],
      "name": "getGamesByUser",
      "outputs": [
        {
          "components": [
            {
              "internalType": "bytes32",
              "name": "gameId",
              "type": "bytes32"
            },
            {
              "internalType": "uint256",
              "name": "betAmount",
              "type": "uint256"
            },
            {
              "components": [
                {
                  "internalType": "address payable",
                  "name": "addr",
                  "type": "address"
                },
                {
                  "internalType": "uint8",
                  "name": "status",
                  "type": "uint8"
                }
              ],
              "internalType": "struct Staking.Bet",
              "name": "creator",
              "type": "tuple"
            },
            {
              "components": [
                {
                  "internalType": "address payable",
                  "name": "addr",
                  "type": "address"
                },
                {
                  "internalType": "uint8",
                  "name": "status",
                  "type": "uint8"
                }
              ],
              "internalType": "struct Staking.Bet",
              "name": "taker",
              "type": "tuple"
            },
            {
              "internalType": "uint8",
              "name": "status",
              "type": "uint8"
            },
            {
              "internalType": "uint256",
              "name": "createdAt",
              "type": "uint256"
            }
          ],
          "internalType": "struct Staking.Game[]",
          "name": "",
          "type": "tuple[]"
        }
      ],
      "stateMutability": "view",
      "type": "function"
    },
    {
      "inputs": [
        {
          "internalType": "bytes32",
          "name": "_gameId",
          "type": "bytes32"
        }
      ],
      "name": "getRoyalty",
      "outputs": [
        {
          "internalType": "uint256",
          "name": "",
          "type": "uint256"
        }
      ],
      "stateMutability": "view",
      "type": "function"
    },
    {
      "inputs": [
        {
          "internalType": "bytes32",
          "name": "_gameId",
          "type": "bytes32"
        }
      ],
      "name": "getRoyaltyInternal",
      "outputs": [
        {
          "internalType": "uint256",
          "name": "",
          "type": "uint256"
        }
      ],
      "stateMutability": "view",
      "type": "function"
    },
    {
      "inputs": [],
      "name": "getTotalRoyaltyEarned",
      "outputs": [
        {
          "internalType": "uint256",
          "name": "",
          "type": "uint256"
        }
      ],
      "stateMutability": "view",
      "type": "function"
    },
    {
      "inputs": [
        {
          "internalType": "bytes32",
          "name": "_gameId",
          "type": "bytes32"
        },
        {
          "internalType": "uint256",
          "name": "_amount",
          "type": "uint256"
        }
      ],
      "name": "takeBet",
      "outputs": [],
      "stateMutability": "nonpayable",
      "type": "function"
    },
    {
      "inputs": [
        {
          "internalType": "bytes32",
          "name": "_gameId",
          "type": "bytes32"
        },
        {
          "internalType": "uint8",
          "name": "STATUS_CREATOR",
          "type": "uint8"
        },
        {
          "internalType": "uint8",
          "name": "STATUS_TAKER",
          "type": "uint8"
        },
        {
          "internalType": "string",
          "name": "_moves",
          "type": "string"
        }
      ],
      "name": "withdraw",
      "outputs": [
        {
          "internalType": "uint256",
          "name": "",
          "type": "uint256"
        }
      ],
      "stateMutability": "nonpayable",
      "type": "function"
    }
  ],
  "bytecode": "0x60806040526000600260146101000a81548160ff0219169083151502179055503480156200002c57600080fd5b50604051620040193803806200401983398181016040528101906200005291906200022e565b600160008190555033600260006101000a81548173ffffffffffffffffffffffffffffffffffffffff021916908373ffffffffffffffffffffffffffffffffffffffff16021790555082600460006101000a81548173ffffffffffffffffffffffffffffffffffffffff021916908373ffffffffffffffffffffffffffffffffffffffff16021790555081600460146101000a81548160ff021916908360ff16021790555080600160006101000a81548173ffffffffffffffffffffffffffffffffffffffff021916908373ffffffffffffffffffffffffffffffffffffffff1602179055505050506200028a565b600080fd5b600073ffffffffffffffffffffffffffffffffffffffff82169050919050565b6000620001738262000146565b9050919050565b620001858162000166565b81146200019157600080fd5b50565b600081519050620001a5816200017a565b92915050565b600060ff82169050919050565b620001c381620001ab565b8114620001cf57600080fd5b50565b600081519050620001e381620001b8565b92915050565b6000620001f68262000166565b9050919050565b6200020881620001e9565b81146200021457600080fd5b50565b6000815190506200022881620001fd565b92915050565b6000806000606084860312156200024a576200024962000141565b5b60006200025a8682870162000194565b93505060206200026d86828701620001d2565b9250506040620002808682870162000217565b9150509250925092565b613d7f806200029a6000396000f3fe60806040526004361061009c5760003560e01c806367102e7d1161006457806367102e7d146101865780636a606526146101c35780639f8c4da514610200578063b1c633451461023d578063c4d252f514610268578063ef77620b146102915761009c565b806320a126bb146100a15780632e0be39a146100de5780632f3bddfe146101095780634bb278f3146101325780635bcdaa3d14610149575b600080fd5b3480156100ad57600080fd5b506100c860048036038101906100c39190612d53565b6102ad565b6040516100d59190612f4a565b60405180910390f35b3480156100ea57600080fd5b506100f3610640565b6040516101009190612f7b565b60405180910390f35b34801561011557600080fd5b50610130600480360381019061012b9190612fee565b610646565b005b34801561013e57600080fd5b50610147610b35565b005b34801561015557600080fd5b50610170600480360381019061016b91906130bf565b6111c5565b60405161017d9190612f7b565b60405180910390f35b34801561019257600080fd5b506101ad60048036038101906101a89190613147565b611afd565b6040516101ba9190612f7b565b60405180910390f35b3480156101cf57600080fd5b506101ea60048036038101906101e59190613147565b611bcd565b6040516101f79190612f7b565b60405180910390f35b34801561020c57600080fd5b5061022760048036038101906102229190613174565b611c9d565b6040516102349190612f4a565b60405180910390f35b34801561024957600080fd5b50610252611f71565b60405161025f9190612f7b565b60405180910390f35b34801561027457600080fd5b5061028f600480360381019061028a9190613147565b612077565b005b6102ab60048036038101906102a69190612fee565b6124ff565b005b606060001515600260149054906101000a900460ff16151514610305576040517f08c379a00000000000000000000000000000000000000000000000000000000081526004016102fc906131fe565b60405180910390fd5b600061031083612a35565b67ffffffffffffffff8111156103295761032861321e565b5b60405190808252806020026020018201604052801561036257816020015b61034f612c70565b8152602001906001900390816103475790505b5090506000805b600354811015610635578473ffffffffffffffffffffffffffffffffffffffff16600660006007600085815260200190815260200160002054815260200190815260200160002060020160000160009054906101000a900473ffffffffffffffffffffffffffffffffffffffff1673ffffffffffffffffffffffffffffffffffffffff16148061047057508473ffffffffffffffffffffffffffffffffffffffff16600660006007600085815260200190815260200160002054815260200190815260200160002060030160000160009054906101000a900473ffffffffffffffffffffffffffffffffffffffff1673ffffffffffffffffffffffffffffffffffffffff16145b1561062257600060066000600760008581526020019081526020016000205481526020019081526020016000206040518060c00160405290816000820154815260200160018201548152602001600282016040518060400160405290816000820160009054906101000a900473ffffffffffffffffffffffffffffffffffffffff1673ffffffffffffffffffffffffffffffffffffffff1673ffffffffffffffffffffffffffffffffffffffff1681526020016000820160149054906101000a900460ff1660ff1660ff16815250508152602001600382016040518060400160405290816000820160009054906101000a900473ffffffffffffffffffffffffffffffffffffffff1673ffffffffffffffffffffffffffffffffffffffff1673ffffffffffffffffffffffffffffffffffffffff1681526020016000820160149054906101000a900460ff1660ff1660ff168152505081526020016004820160009054906101000a900460ff1660ff1660ff1681526020016005820154815250509050808484815181106106075761060661324d565b5b6020026020010181905250828061061d906132ab565b935050505b808061062d906132ab565b915050610369565b508192505050919050565b60035481565b60001515600260149054906101000a900460ff1615151461069c576040517f08c379a0000000000000000000000000000000000000000000000000000000008152600401610693906131fe565b60405180910390fd5b6000600660008481526020019081526020016000209050806001015482146106f9576040517f08c379a00000000000000000000000000000000000000000000000000000000081526004016106f090613365565b60405180910390fd5b8060020160000160009054906101000a900473ffffffffffffffffffffffffffffffffffffffff1673ffffffffffffffffffffffffffffffffffffffff163373ffffffffffffffffffffffffffffffffffffffff160361078e576040517f08c379a0000000000000000000000000000000000000000000000000000000008152600401610785906133f7565b60405180910390fd5b600082146109fe57600160009054906101000a900473ffffffffffffffffffffffffffffffffffffffff1673ffffffffffffffffffffffffffffffffffffffff166370a08231336040518263ffffffff1660e01b81526004016107f19190613426565b602060405180830381865afa15801561080e573d6000803e3d6000fd5b505050506040513d601f19601f820116820180604052508101906108329190613456565b821115610874576040517f08c379a000000000000000000000000000000000000000000000000000000000815260040161086b906134cf565b60405180910390fd5b6000600160009054906101000a900473ffffffffffffffffffffffffffffffffffffffff1673ffffffffffffffffffffffffffffffffffffffff1663dd62ed3e33306040518363ffffffff1660e01b81526004016108d39291906134ef565b602060405180830381865afa1580156108f0573d6000803e3d6000fd5b505050506040513d601f19601f820116820180604052508101906109149190613456565b905082811015610959576040517f08c379a000000000000000000000000000000000000000000000000000000000815260040161095090613564565b60405180910390fd5b600160009054906101000a900473ffffffffffffffffffffffffffffffffffffffff1673ffffffffffffffffffffffffffffffffffffffff166323b872dd3330866040518463ffffffff1660e01b81526004016109b893929190613584565b6020604051808303816000875af11580156109d7573d6000803e3d6000fd5b505050506040513d601f19601f820116820180604052508101906109fb91906135f3565b50505b60405180604001604052803373ffffffffffffffffffffffffffffffffffffffff168152602001600460ff168152508160030160008201518160000160006101000a81548173ffffffffffffffffffffffffffffffffffffffff021916908373ffffffffffffffffffffffffffffffffffffffff16021790555060208201518160000160146101000a81548160ff021916908360ff16021790555090505060028160040160006101000a81548160ff021916908360ff160217905550604051610ac690613677565b6040518091039020816001015482600001547fb9c079cdf9e667753fd55c60f07f018d3db7d1f7bc84ae99631831bde70ebd7d84600201856003018660040160009054906101000a900460ff168760050154604051610b28949392919061377c565b60405180910390a4505050565b600260009054906101000a900473ffffffffffffffffffffffffffffffffffffffff1673ffffffffffffffffffffffffffffffffffffffff163373ffffffffffffffffffffffffffffffffffffffff1614610bc5576040517f08c379a0000000000000000000000000000000000000000000000000000000008152600401610bbc90613846565b60405180910390fd5b60001515600260149054906101000a900460ff16151514610c1b576040517f08c379a0000000000000000000000000000000000000000000000000000000008152600401610c12906131fe565b60405180910390fd5b610c23612b73565b60005b60035481101561119f57600060066000600760008581526020019081526020016000205481526020019081526020016000206040518060c00160405290816000820154815260200160018201548152602001600282016040518060400160405290816000820160009054906101000a900473ffffffffffffffffffffffffffffffffffffffff1673ffffffffffffffffffffffffffffffffffffffff1673ffffffffffffffffffffffffffffffffffffffff1681526020016000820160149054906101000a900460ff1660ff1660ff16815250508152602001600382016040518060400160405290816000820160009054906101000a900473ffffffffffffffffffffffffffffffffffffffff1673ffffffffffffffffffffffffffffffffffffffff1673ffffffffffffffffffffffffffffffffffffffff1681526020016000820160149054906101000a900460ff1660ff1660ff168152505081526020016004820160009054906101000a900460ff1660ff1660ff16815260200160058201548152505090506000816020015114610fed57600160ff16816080015160ff1603610e7e57600160009054906101000a900473ffffffffffffffffffffffffffffffffffffffff1673ffffffffffffffffffffffffffffffffffffffff1663a9059cbb82604001516000015183602001516040518363ffffffff1660e01b8152600401610e359291906138c5565b6020604051808303816000875af1158015610e54573d6000803e3d6000fd5b505050506040513d601f19601f82011682018060405250810190610e7891906135f3565b50610fec565b600260ff16816080015160ff1603610feb57600160009054906101000a900473ffffffffffffffffffffffffffffffffffffffff1673ffffffffffffffffffffffffffffffffffffffff1663a9059cbb82604001516000015183602001516040518363ffffffff1660e01b8152600401610ef99291906138c5565b6020604051808303816000875af1158015610f18573d6000803e3d6000fd5b505050506040513d601f19601f82011682018060405250810190610f3c91906135f3565b50600160009054906101000a900473ffffffffffffffffffffffffffffffffffffffff1673ffffffffffffffffffffffffffffffffffffffff1663a9059cbb82606001516000015183602001516040518363ffffffff1660e01b8152600401610fa69291906138c5565b6020604051808303816000875af1158015610fc5573d6000803e3d6000fd5b505050506040513d601f19601f82011682018060405250810190610fe991906135f3565b505b5b5b6004600660006007600086815260200190815260200160002054815260200190815260200160002060040160006101000a81548160ff021916908360ff16021790555060405161103c9061393a565b6040518091039020816020015182600001517fb9c079cdf9e667753fd55c60f07f018d3db7d1f7bc84ae99631831bde70ebd7d8460400151856060015186608001518760a00151604051611093949392919061397e565b60405180910390a46006600060076000858152602001908152602001600020548152602001908152602001600020600080820160009055600182016000905560028201600080820160006101000a81549073ffffffffffffffffffffffffffffffffffffffff02191690556000820160146101000a81549060ff0219169055505060038201600080820160006101000a81549073ffffffffffffffffffffffffffffffffffffffff02191690556000820160146101000a81549060ff021916905550506004820160006101000a81549060ff0219169055600582016000905550506007600083815260200190815260200160002060009055508080611197906132ab565b915050610c26565b506001600260146101000a81548160ff0219169083151502179055506111c3612bc2565b565b6000600260009054906101000a900473ffffffffffffffffffffffffffffffffffffffff1673ffffffffffffffffffffffffffffffffffffffff163373ffffffffffffffffffffffffffffffffffffffff1614611257576040517f08c379a000000000000000000000000000000000000000000000000000000000815260040161124e90613846565b60405180910390fd5b60001515600260149054906101000a900460ff161515146112ad576040517f08c379a00000000000000000000000000000000000000000000000000000000081526004016112a4906131fe565b60405180910390fd5b6112b5612b73565b600060066000888152602001908152602001600020905060038160040160006101000a81548160ff021916908360ff160217905550858160020160000160146101000a81548160ff021916908360ff160217905550848160030160000160146101000a81548160ff021916908360ff16021790555060008160010154146119535761135f6002826001015461134a91906139d6565b600460149054906101000a900460ff16612bcc565b600160009054906101000a900473ffffffffffffffffffffffffffffffffffffffff1673ffffffffffffffffffffffffffffffffffffffff1663a9059cbb600460009054906101000a900473ffffffffffffffffffffffffffffffffffffffff166005546040518363ffffffff1660e01b81526004016113e09291906138c5565b6020604051808303816000875af11580156113ff573d6000803e3d6000fd5b505050506040513d601f19601f8201168201806040525081019061142391906135f3565b50600160ff168160020160000160149054906101000a900460ff1660ff1603611631576000600160009054906101000a900473ffffffffffffffffffffffffffffffffffffffff1673ffffffffffffffffffffffffffffffffffffffff166370a08231306040518263ffffffff1660e01b81526004016114a39190613426565b602060405180830381865afa1580156114c0573d6000803e3d6000fd5b505050506040513d601f19601f820116820180604052508101906114e49190613456565b905080600554600284600101546114fb91906139d6565b6115059190613a18565b1115611546576040517f08c379a000000000000000000000000000000000000000000000000000000000815260040161153d906134cf565b60405180910390fd5b600160009054906101000a900473ffffffffffffffffffffffffffffffffffffffff1673ffffffffffffffffffffffffffffffffffffffff1663a9059cbb8360020160000160009054906101000a900473ffffffffffffffffffffffffffffffffffffffff16600554600286600101546115c091906139d6565b6115ca9190613a18565b6040518363ffffffff1660e01b81526004016115e79291906138c5565b6020604051808303816000875af1158015611606573d6000803e3d6000fd5b505050506040513d601f19601f8201168201806040525081019061162a91906135f3565b5050611952565b600160ff168160030160000160149054906101000a900460ff1660ff160361173d57600160009054906101000a900473ffffffffffffffffffffffffffffffffffffffff1673ffffffffffffffffffffffffffffffffffffffff1663a9059cbb8260030160000160009054906101000a900473ffffffffffffffffffffffffffffffffffffffff16600554600285600101546116cd91906139d6565b6116d79190613a18565b6040518363ffffffff1660e01b81526004016116f49291906138c5565b6020604051808303816000875af1158015611713573d6000803e3d6000fd5b505050506040513d601f19601f8201168201806040525081019061173791906135f3565b50611951565b600360ff168160020160000160149054906101000a900460ff1660ff1614806117805750600360ff168160030160000160149054906101000a900460ff1660ff16145b1561195057600160009054906101000a900473ffffffffffffffffffffffffffffffffffffffff1673ffffffffffffffffffffffffffffffffffffffff1663a9059cbb8260030160000160009054906101000a900473ffffffffffffffffffffffffffffffffffffffff1660026005546117fa9190613a7b565b84600101546118099190613a18565b6040518363ffffffff1660e01b81526004016118269291906138c5565b6020604051808303816000875af1158015611845573d6000803e3d6000fd5b505050506040513d601f19601f8201168201806040525081019061186991906135f3565b50600160009054906101000a900473ffffffffffffffffffffffffffffffffffffffff1673ffffffffffffffffffffffffffffffffffffffff1663a9059cbb8260030160000160009054906101000a900473ffffffffffffffffffffffffffffffffffffffff1660026005546118df9190613a7b565b84600101546118ee9190613a18565b6040518363ffffffff1660e01b815260040161190b9291906138c5565b6020604051808303816000875af115801561192a573d6000803e3d6000fd5b505050506040513d601f19601f8201168201806040525081019061194e91906135f3565b505b5b5b5b60405161195f90613af8565b6040518091039020816001015482600001547fb9c079cdf9e667753fd55c60f07f018d3db7d1f7bc84ae99631831bde70ebd7d84600201856003018660040160009054906101000a900460ff1687600501548b8b6040516119c596959493929190613b5a565b60405180910390a460066000888152602001908152602001600020600080820160009055600182016000905560028201600080820160006101000a81549073ffffffffffffffffffffffffffffffffffffffff02191690556000820160146101000a81549060ff0219169055505060038201600080820160006101000a81549073ffffffffffffffffffffffffffffffffffffffff02191690556000820160146101000a81549060ff021916905550506004820160006101000a81549060ff02191690556005820160009055505060005b600354811015611ae55787600760008381526020019081526020016000205403611ad25760076000828152602001908152602001600020600090555b8080611add906132ab565b915050611a96565b50600554915050611af4612bc2565b95945050505050565b6000801515600260149054906101000a900460ff16151514611b54576040517f08c379a0000000000000000000000000000000000000000000000000000000008152600401611b4b906131fe565b60405180910390fd5b60006006600084815260200190815260200160002090506005600460149054906101000a900460ff1660ff16148015611b9257506000816001015414155b15611bc2576000606460058360010154611bac91906139d6565b611bb69190613a7b565b90508092505050611bc8565b60009150505b919050565b6000801515600260149054906101000a900460ff16151514611c24576040517f08c379a0000000000000000000000000000000000000000000000000000000008152600401611c1b906131fe565b60405180910390fd5b60006006600084815260200190815260200160002090506005600460149054906101000a900460ff1660ff16148015611c6257506000816001015414155b15611c92576000606460058360010154611c7c91906139d6565b611c869190613a7b565b90508092505050611c98565b60009150505b919050565b606060001515600260149054906101000a900460ff16151514611cf5576040517f08c379a0000000000000000000000000000000000000000000000000000000008152600401611cec906131fe565b60405180910390fd5b6000611d0083612bf1565b67ffffffffffffffff811115611d1957611d1861321e565b5b604051908082528060200260200182016040528015611d5257816020015b611d3f612c70565b815260200190600190039081611d375790505b5090506000805b600354811015611f66578460ff16600660006007600085815260200190815260200160002054815260200190815260200160002060040160009054906101000a900460ff1660ff1603611f5357600060066000600760008581526020019081526020016000205481526020019081526020016000206040518060c00160405290816000820154815260200160018201548152602001600282016040518060400160405290816000820160009054906101000a900473ffffffffffffffffffffffffffffffffffffffff1673ffffffffffffffffffffffffffffffffffffffff1673ffffffffffffffffffffffffffffffffffffffff1681526020016000820160149054906101000a900460ff1660ff1660ff16815250508152602001600382016040518060400160405290816000820160009054906101000a900473ffffffffffffffffffffffffffffffffffffffff1673ffffffffffffffffffffffffffffffffffffffff1673ffffffffffffffffffffffffffffffffffffffff1681526020016000820160149054906101000a900460ff1660ff1660ff168152505081526020016004820160009054906101000a900460ff1660ff1660ff168152602001600582015481525050905080848481518110611f3857611f3761324d565b5b60200260200101819052508280611f4e906132ab565b935050505b8080611f5e906132ab565b915050611d59565b508192505050919050565b6000806000905060005b60035481101561206f57600060066000600760008581526020019081526020016000205481526020019081526020016000209050600260009054906101000a900473ffffffffffffffffffffffffffffffffffffffff1673ffffffffffffffffffffffffffffffffffffffff168160020160000160009054906101000a900473ffffffffffffffffffffffffffffffffffffffff1673ffffffffffffffffffffffffffffffffffffffff160361205b5760006120496007600085815260200190815260200160002054611bcd565b905080846120579190613bb6565b9350505b508080612067906132ab565b915050611f7b565b508091505090565b60001515600260149054906101000a900460ff161515146120cd576040517f08c379a00000000000000000000000000000000000000000000000000000000081526004016120c4906131fe565b60405180910390fd5b6120d5612b73565b60006006600083815260200190815260200160002090508060020160000160009054906101000a900473ffffffffffffffffffffffffffffffffffffffff1673ffffffffffffffffffffffffffffffffffffffff163373ffffffffffffffffffffffffffffffffffffffff1614612181576040517f08c379a000000000000000000000000000000000000000000000000000000000815260040161217890613c5c565b60405180910390fd5b600081600101541461234657600160009054906101000a900473ffffffffffffffffffffffffffffffffffffffff1673ffffffffffffffffffffffffffffffffffffffff1663a9059cbb8260020160000160009054906101000a900473ffffffffffffffffffffffffffffffffffffffff1683600101546040518363ffffffff1660e01b81526004016122159291906138c5565b6020604051808303816000875af1158015612234573d6000803e3d6000fd5b505050506040513d601f19601f8201168201806040525081019061225891906135f3565b50600260ff168160040160009054906101000a900460ff1660ff160361234557600160009054906101000a900473ffffffffffffffffffffffffffffffffffffffff1673ffffffffffffffffffffffffffffffffffffffff1663a9059cbb8260030160000160009054906101000a900473ffffffffffffffffffffffffffffffffffffffff1683600101546040518363ffffffff1660e01b81526004016123009291906138c5565b6020604051808303816000875af115801561231f573d6000803e3d6000fd5b505050506040513d601f19601f8201168201806040525081019061234391906135f3565b505b5b60048160040160006101000a81548160ff021916908360ff1602179055506040516123709061393a565b6040518091039020816001015482600001547fb9c079cdf9e667753fd55c60f07f018d3db7d1f7bc84ae99631831bde70ebd7d84600201856003018660040160009054906101000a900460ff1687600501546040516123d2949392919061377c565b60405180910390a460066000838152602001908152602001600020600080820160009055600182016000905560028201600080820160006101000a81549073ffffffffffffffffffffffffffffffffffffffff02191690556000820160146101000a81549060ff0219169055505060038201600080820160006101000a81549073ffffffffffffffffffffffffffffffffffffffff02191690556000820160146101000a81549060ff021916905550506004820160006101000a81549060ff02191690556005820160009055505060005b6003548110156124f257826007600083815260200190815260200160002054036124df5760076000828152602001908152602001600020600090555b80806124ea906132ab565b9150506124a3565b50506124fc612bc2565b50565b60001515600260149054906101000a900460ff16151514612555576040517f08c379a000000000000000000000000000000000000000000000000000000000815260040161254c906131fe565b60405180910390fd5b600081146127c557600160009054906101000a900473ffffffffffffffffffffffffffffffffffffffff1673ffffffffffffffffffffffffffffffffffffffff166370a08231336040518263ffffffff1660e01b81526004016125b89190613426565b602060405180830381865afa1580156125d5573d6000803e3d6000fd5b505050506040513d601f19601f820116820180604052508101906125f99190613456565b81111561263b576040517f08c379a0000000000000000000000000000000000000000000000000000000008152600401612632906134cf565b60405180910390fd5b6000600160009054906101000a900473ffffffffffffffffffffffffffffffffffffffff1673ffffffffffffffffffffffffffffffffffffffff1663dd62ed3e33306040518363ffffffff1660e01b815260040161269a9291906134ef565b602060405180830381865afa1580156126b7573d6000803e3d6000fd5b505050506040513d601f19601f820116820180604052508101906126db9190613456565b905081811015612720576040517f08c379a000000000000000000000000000000000000000000000000000000000815260040161271790613564565b60405180910390fd5b600160009054906101000a900473ffffffffffffffffffffffffffffffffffffffff1673ffffffffffffffffffffffffffffffffffffffff166323b872dd3330856040518463ffffffff1660e01b815260040161277f93929190613584565b6020604051808303816000875af115801561279e573d6000803e3d6000fd5b505050506040513d601f19601f820116820180604052508101906127c291906135f3565b50505b60006040518060c0016040528084815260200183815260200160405180604001604052803373ffffffffffffffffffffffffffffffffffffffff168152602001600460ff1681525081526020016040518060400160405280600073ffffffffffffffffffffffffffffffffffffffff168152602001600060ff168152508152602001600160ff1681526020014281525090508060066000858152602001908152602001600020600082015181600001556020820151816001015560408201518160020160008201518160000160006101000a81548173ffffffffffffffffffffffffffffffffffffffff021916908373ffffffffffffffffffffffffffffffffffffffff16021790555060208201518160000160146101000a81548160ff021916908360ff160217905550505060608201518160030160008201518160000160006101000a81548173ffffffffffffffffffffffffffffffffffffffff021916908373ffffffffffffffffffffffffffffffffffffffff16021790555060208201518160000160146101000a81548160ff021916908360ff160217905550505060808201518160040160006101000a81548160ff021916908360ff16021790555060a082015181600501559050508260076000600354815260200190815260200160002081905550600360008154809291906129c0906132ab565b91905055506040516129d190613cc8565b6040518091039020816020015182600001517fb9c079cdf9e667753fd55c60f07f018d3db7d1f7bc84ae99631831bde70ebd7d8460400151856060015186608001518760a00151604051612a28949392919061397e565b60405180910390a4505050565b60008060005b600354811015612b69578373ffffffffffffffffffffffffffffffffffffffff16600660006007600085815260200190815260200160002054815260200190815260200160002060020160000160009054906101000a900473ffffffffffffffffffffffffffffffffffffffff1673ffffffffffffffffffffffffffffffffffffffff161480612b4257508373ffffffffffffffffffffffffffffffffffffffff16600660006007600085815260200190815260200160002054815260200190815260200160002060030160000160009054906101000a900473ffffffffffffffffffffffffffffffffffffffff1673ffffffffffffffffffffffffffffffffffffffff16145b15612b56578180612b52906132ab565b9250505b8080612b61906132ab565b915050612a3b565b5080915050919050565b600260005403612bb8576040517f08c379a0000000000000000000000000000000000000000000000000000000008152600401612baf90613d29565b60405180910390fd5b6002600081905550565b6001600081905550565b60648160ff1683612bdd91906139d6565b612be79190613a7b565b6005819055505050565b60008060005b600354811015612c66578360ff16600660006007600085815260200190815260200160002054815260200190815260200160002060040160009054906101000a900460ff1660ff1603612c53578180612c4f906132ab565b9250505b8080612c5e906132ab565b915050612bf7565b5080915050919050565b6040518060c001604052806000801916815260200160008152602001612c94612cb8565b8152602001612ca1612cb8565b8152602001600060ff168152602001600081525090565b6040518060400160405280600073ffffffffffffffffffffffffffffffffffffffff168152602001600060ff1681525090565b600080fd5b600080fd5b600073ffffffffffffffffffffffffffffffffffffffff82169050919050565b6000612d2082612cf5565b9050919050565b612d3081612d15565b8114612d3b57600080fd5b50565b600081359050612d4d81612d27565b92915050565b600060208284031215612d6957612d68612ceb565b5b6000612d7784828501612d3e565b91505092915050565b600081519050919050565b600082825260208201905092915050565b6000819050602082019050919050565b6000819050919050565b612dbf81612dac565b82525050565b6000819050919050565b612dd881612dc5565b82525050565b6000612de982612cf5565b9050919050565b612df981612dde565b82525050565b600060ff82169050919050565b612e1581612dff565b82525050565b604082016000820151612e316000850182612df0565b506020820151612e446020850182612e0c565b50505050565b61010082016000820151612e616000850182612db6565b506020820151612e746020850182612dcf565b506040820151612e876040850182612e1b565b506060820151612e9a6080850182612e1b565b506080820151612ead60c0850182612e0c565b5060a0820151612ec060e0850182612dcf565b50505050565b6000612ed28383612e4a565b6101008301905092915050565b6000602082019050919050565b6000612ef782612d80565b612f018185612d8b565b9350612f0c83612d9c565b8060005b83811015612f3d578151612f248882612ec6565b9750612f2f83612edf565b925050600181019050612f10565b5085935050505092915050565b60006020820190508181036000830152612f648184612eec565b905092915050565b612f7581612dc5565b82525050565b6000602082019050612f906000830184612f6c565b92915050565b612f9f81612dac565b8114612faa57600080fd5b50565b600081359050612fbc81612f96565b92915050565b612fcb81612dc5565b8114612fd657600080fd5b50565b600081359050612fe881612fc2565b92915050565b6000806040838503121561300557613004612ceb565b5b600061301385828601612fad565b925050602061302485828601612fd9565b9150509250929050565b61303781612dff565b811461304257600080fd5b50565b6000813590506130548161302e565b92915050565b600080fd5b600080fd5b600080fd5b60008083601f84011261307f5761307e61305a565b5b8235905067ffffffffffffffff81111561309c5761309b61305f565b5b6020830191508360018202830111156130b8576130b7613064565b5b9250929050565b6000806000806000608086880312156130db576130da612ceb565b5b60006130e988828901612fad565b95505060206130fa88828901613045565b945050604061310b88828901613045565b935050606086013567ffffffffffffffff81111561312c5761312b612cf0565b5b61313888828901613069565b92509250509295509295909350565b60006020828403121561315d5761315c612ceb565b5b600061316b84828501612fad565b91505092915050565b60006020828403121561318a57613189612ceb565b5b600061319884828501613045565b91505092915050565b600082825260208201905092915050565b7f436f6e747261637420776f726b2069732073757370656e646564000000000000600082015250565b60006131e8601a836131a1565b91506131f3826131b2565b602082019050919050565b60006020820190508181036000830152613217816131db565b9050919050565b7f4e487b7100000000000000000000000000000000000000000000000000000000600052604160045260246000fd5b7f4e487b7100000000000000000000000000000000000000000000000000000000600052603260045260246000fd5b7f4e487b7100000000000000000000000000000000000000000000000000000000600052601160045260246000fd5b60006132b682612dc5565b91507fffffffffffffffffffffffffffffffffffffffffffffffffffffffffffffffff82036132e8576132e761327c565b5b600182019050919050565b7f5468652076616c7565206f662074686520626574206973206e6f74206571756160008201527f6c20746f20746865207265717569726564000000000000000000000000000000602082015250565b600061334f6031836131a1565b915061335a826132f3565b604082019050919050565b6000602082019050818103600083015261337e81613342565b9050919050565b7f5468652063726561746f72206f66207468652067616d652063616e2774206a6f60008201527f696e206974200000000000000000000000000000000000000000000000000000602082015250565b60006133e16026836131a1565b91506133ec82613385565b604082019050919050565b60006020820190508181036000830152613410816133d4565b9050919050565b61342081612d15565b82525050565b600060208201905061343b6000830184613417565b92915050565b60008151905061345081612fc2565b92915050565b60006020828403121561346c5761346b612ceb565b5b600061347a84828501613441565b91505092915050565b7f42616c616e6365206973206c6f77000000000000000000000000000000000000600082015250565b60006134b9600e836131a1565b91506134c482613483565b602082019050919050565b600060208201905081810360008301526134e8816134ac565b9050919050565b60006040820190506135046000830185613417565b6135116020830184613417565b9392505050565b7f436865636b2074686520746f6b656e20616c6c6f77616e636500000000000000600082015250565b600061354e6019836131a1565b915061355982613518565b602082019050919050565b6000602082019050818103600083015261357d81613541565b9050919050565b60006060820190506135996000830186613417565b6135a66020830185613417565b6135b36040830184612f6c565b949350505050565b60008115159050919050565b6135d0816135bb565b81146135db57600080fd5b50565b6000815190506135ed816135c7565b92915050565b60006020828403121561360957613608612ceb565b5b6000613617848285016135de565b91505092915050565b600081905092915050565b7f6163636570746564000000000000000000000000000000000000000000000000600082015250565b6000613661600883613620565b915061366c8261362b565b600882019050919050565b600061368282613654565b9150819050919050565b60008160001c9050919050565b600073ffffffffffffffffffffffffffffffffffffffff82169050919050565b60006136cc6136c78361368c565b613699565b9050919050565b60008160a01c9050919050565b600060ff82169050919050565b60006137006136fb836136d3565b6136e0565b9050919050565b60408201600080830154905061371c816136b9565b6137296000860182612df0565b50613733816136ed565b6137406020860182612e0c565b5050505050565b61375081612dff565b82525050565b50565b60006137666000836131a1565b915061377182613756565b600082019050919050565b600060e0820190506137916000830187613707565b61379e6040830186613707565b6137ab6080830185613747565b6137b860a0830184612f6c565b81810360c08301526137c981613759565b905095945050505050565b7f546865206f7065726174696f6e206973206f6e6c7920617661696c61626c652060008201527f746f2074686520636f6e74726163742063726561746f72000000000000000000602082015250565b60006138306037836131a1565b915061383b826137d4565b604082019050919050565b6000602082019050818103600083015261385f81613823565b9050919050565b6000819050919050565b600061388b61388661388184612cf5565b613866565b612cf5565b9050919050565b600061389d82613870565b9050919050565b60006138af82613892565b9050919050565b6138bf816138a4565b82525050565b60006040820190506138da60008301856138b6565b6138e76020830184612f6c565b9392505050565b7f63616e63656c6c65640000000000000000000000000000000000000000000000600082015250565b6000613924600983613620565b915061392f826138ee565b600982019050919050565b600061394582613917565b9150819050919050565b6040820160008201516139656000850182612df0565b5060208201516139786020850182612e0c565b50505050565b600060e082019050613993600083018761394f565b6139a0604083018661394f565b6139ad6080830185613747565b6139ba60a0830184612f6c565b81810360c08301526139cb81613759565b905095945050505050565b60006139e182612dc5565b91506139ec83612dc5565b92508282026139fa81612dc5565b91508282048414831517613a1157613a1061327c565b5b5092915050565b6000613a2382612dc5565b9150613a2e83612dc5565b9250828203905081811115613a4657613a4561327c565b5b92915050565b7f4e487b7100000000000000000000000000000000000000000000000000000000600052601260045260246000fd5b6000613a8682612dc5565b9150613a9183612dc5565b925082613aa157613aa0613a4c565b5b828204905092915050565b7f636f6d706c657465640000000000000000000000000000000000000000000000600082015250565b6000613ae2600983613620565b9150613aed82613aac565b600982019050919050565b6000613b0382613ad5565b9150819050919050565b82818337600083830152505050565b6000601f19601f8301169050919050565b6000613b3983856131a1565b9350613b46838584613b0d565b613b4f83613b1c565b840190509392505050565b600060e082019050613b6f6000830189613707565b613b7c6040830188613707565b613b896080830187613747565b613b9660a0830186612f6c565b81810360c0830152613ba9818486613b2d565b9050979650505050505050565b6000613bc182612dc5565b9150613bcc83612dc5565b9250828201905080821115613be457613be361327c565b5b92915050565b7f4f6e6c79207468652063726561746f72206f66207468652067616d652063616e60008201527f2063616e63656c20697400000000000000000000000000000000000000000000602082015250565b6000613c46602a836131a1565b9150613c5182613bea565b604082019050919050565b60006020820190508181036000830152613c7581613c39565b9050919050565b7f6372656174656400000000000000000000000000000000000000000000000000600082015250565b6000613cb2600783613620565b9150613cbd82613c7c565b600782019050919050565b6000613cd382613ca5565b9150819050919050565b7f5265656e7472616e637947756172643a207265656e7472616e742063616c6c00600082015250565b6000613d13601f836131a1565b9150613d1e82613cdd565b602082019050919050565b60006020820190508181036000830152613d4281613d06565b905091905056fea2646970667358221220512d868ff7fb185774670cab1326f1c783dd19028b567f1657c0769d3327ff4864736f6c63430008130033",
  "linkReferences": {},
  "deployedLinkReferences": {}
}